:020000040800F2
:10000000485D002009770008397500083B75000835
:100010003D7500083F7500084175000800000000AC
:100020000000000000000000000000004375000810
:100030004575000800000000477500084975000874
:1000400033770008377700083B7700083F770008D0
:1000500043770008477700084B7700084F77000880
:1000600053770008577700085B7700085F77000830
:10007000577500085D75000863770008677700080A
:100080006B7700086F7700087377000877770008B0
:100090007B7700087F770008837700088777000860
:1000A0008B7700088F770008937700089777000810
:1000B0009B7700089F770008A3770008A7770008C0
:1000C000AB770008AF770008B3770008B777000870
:1000D000BB770008BF770008C3770008C777000820
:1000E000CB770008CF770008D3770008D7770008D0
:1000F000DB770008DF770008E3770008E777000880
:10010000EB770008EF770008F3770008F77700082F
:10011000FB770008FF770008637500086975000821
:10012000037800086F7500087575000807780008E7
:100130000B7800080F78000813780008177800087B
:100140001B7800081F78000823780008277800082B
:100150002B7800082F780008337800087B7500089A
:10016000377800083B7800083F780008437800089B
:10017000477800084B7800084F780008000000001E
:1001800053780008577800082DE9F04F0FF2B019A6
:10019000A1B0D9E90045CDE90045049100212A9E8E
:1001A000DFF8FC8B8DF843600D914FF0FF398246EC
:1001B00015461F460FE0AB4634461BF8011B04985A
:1001C000D0470028049000F0A7800D98401C641EC2
:1001D0000D90F2D135442878252807D100210791C8
:1001E000089109910A910B910C910DE06A464946DC
:1001F000284600F0EFFF060001D10D98A8E0DAD5FF
:100200000126E7E741F0010115F8010F2028F9D098
:1002100023280DD02B2804D02D2806D030280AD032
:100220007CE041F0020189B2EEE741F00401FAE717
:1002300041F00801F7E741F01001F4E700200F90CA
:1002400009E00F98404505DA00EB800302EB43021A
:10025000303A0F926D1C2A78A2F130000A28F0D3B0
:100260002A782E2A18BFCDF8389023D115F8010F1F
:100270002A2807D1386838606D1C50F8042B386084
:100280000E9217E02D280CBF15F8010B002000225C
:100290000E920AE040B90E9A424505DA02EB82045A
:1002A00003EB4403303B0E936D1C2B78A3F130021B
:1002B0000A2AEFD3ADF840100FF28C00297800F035
:1002C00093FF08B115F8010B8DF842009DF842002C
:1002D000682804BF2978682903D162208DF842007C
:1002E00007E06C2804BF28786C2803D171218DF8B1
:1002F00042106D1C12A806903A4615F8013B02A95F
:10030000504600F065F838B912AA02A9504600F02C
:10031000C7F900287FF55FAF484619E02A288DD13C
:100320003868386050F8042B3860002A0F9204D5E2
:10033000524241F004010F9289B26D1C90E7000017
:100340000000000000000000686A6C747A4C000035
:1003500021B0BDE8F08F622820D0682811D06A282B
:1003600003D06C2827D0712825D10868C01D20F043
:1003700007000860D0E900230830086019461046DD
:100380007047002A0A680A60106803D0121D0A60CC
:1003900000B217E0121D0A6080B217E0002A0A6856
:1003A0000A60106803D0121D0A6040B20AE0121DF4
:1003B0000A60C0B20AE0002A0A680A60106803D026
:1003C000121D0A60C1177047121D0A600021704794
:1003D0007CB50D4611461C462E69B4F1250200F08D
:1003E0004D811C3A00F08680121F022A40F2828062
:1003F0000E3A00F00781521F5AD0093A7AD0921E65
:1004000016D0521E35D0521E022A73D9121F30D078
:10041000521F00F09A80521E4AD0521E00F0E48013
:10042000D21E00F0FD80921E42D0D21E40D02BE1A1
:1004300095F83A206C2A09D06869421C6A610A68FA
:100440000A6052F8043B0A60335427E10A680A60E4
:1004500052F8043B0A600021009301914FF0FF32F3
:100460002A6329466A4600F096F9002840F1168171
:1004700001E195F83A000122FFF76DFFC5E900019F
:100480000023994204DA6869411C69612D210DE05D
:10049000288F810704D56869411C69612B2105E01B
:1004A000C00722D56869411C6961202131541CE0D4
:1004B00095F83A000022FFF74EFFC5E9000195F8D4
:1004C0003800010711D5D5E900230020834208BF79
:1004D00082420AD044F02000782806D16869302191
:1004E0003154401C411C69613454214668693044D0
:1004F000E86083E00868C01D20F007000860D0E9CC
:10050000002308300860C5E90023D5E90001C80FC1
:1005100004D06869411C69612D210DE0288F810795
:1005200004D56869411C69612B2105E0C00704D529
:100530006869411C69612021315468693044E86070
:100540002146284600F034FAA8E005F13A02507836
:1005500020B14FF0FF340FF6203070E010786228A1
:1005600008D0682824D06A2812D06C282ED0712890
:100570000ED02BE00A680A6052F8040B0A6020B91A
:100580004FF0FF340FF6083059E0E96A017085E05A
:100590000A680A6052F8040B0A6020B94FF0FF3471
:1005A0000FF6EC204BE0EA6AD317C0E9002375E0B0
:1005B0000A680A6052F8040B0A6020B94FF0FF3451
:1005C0000FF6CC203BE0E96A018067E00A680A6028
:1005D00052F8040B0A6020B94FF0FF340FF6B02038
:1005E0002DE0E96A016059E00A680A6052F8040BDC
:1005F0000A600021C5E90001EE607821284600F07C
:1006000029F94BE06C2285F83A200B680B6053F80F
:10061000042B0B6052BB4FF0FF340FF6A8200EE006
:1006200095F83A206C2AF0D00868086050F8044B1E
:100630000860EC603CB94FF0FF340FF66C2000F01E
:10064000EDFD201A76BD2E6B002E04D5204600F05D
:1006500007FE044608E032460021204600F01CFE5A
:10066000002814BF041B3446AC6117E0294600F093
:1006700092F8002812D54FF0FF3076BD6869411C12
:1006800069612521315409E06869411C69612522AD
:100690003254200002D0481C68617454002076BD9A
:1006A0002DE9F0410E460546716B7069B46A091A6E
:1006B000306A091AB069091A706A091AF069091AC8
:1006C00096F838000C1B410790460DD4002C0BDD2A
:1006D0002746B0682021A8470028B06057D0F06AAC
:1006E000401C7F1EF062F4D17369424631462846B1
:1006F00000F0AAFC00284AD1376A002F0ADDB06852
:100700003021A8470028B06041D0F06A401C7F1E0D
:10071000F062F4D1B369F2683146284600F094FCE7
:10072000A8BB776A002F09DDB0683021A847B06008
:1007300068B3F06A401C7F1EF062F5D1F068B169C1
:10074000F36942183146284600F07EFCF8B9B76AD2
:10075000002F09DDB0683021A847B060B8B1F06A59
:10076000401C7F1EF062F5D196F8380041070BD58A
:10077000002C09DDB0682021A847B06038B1F06ACC
:10078000401C641EF062F5D10020BDE8F0814FF0FE
:10079000FF30BDE8F0812DE9F0470E46A4B0356B7F
:1007A000002D8146904648BF6FF0004500F0A0FD47
:1007B000716B40180FF628118128D1E90023CDE98B
:1007C000012328BF4FF0FF303ED20024002D2FDD43
:1007D000D8F8001001AA684600F0FEFC0746002F7A
:1007E00035D4D8F8000008B97F1E30D4BD421FDBD5
:1007F0007069381881280AD30020706303AA314633
:100800004846FFF74DFF040012D40020706103A892
:10081000D6F814A03A466946504400F06FFDBA4439
:10082000C6F814A058F8040B002818BFED1BCDD152
:100830002CB903AA31464846FFF732FF044614B9E3
:10084000002070617063204624B0BDE8F0874FF04F
:10085000FF34F8E72DE9FC4B06468B463469BBF1C3
:100860006F0F08BF082505D04BF02001782914BF71
:100870000A2510253C27D6E90023BBF1640F18BFD9
:10088000BBF1690F9046994606D100218B4203DAED
:10089000D8F1000869EB49090020814508BF80456F
:1008A0001FD1306BE8B9082D4ED196F838000107FA
:1008B0004AD530203B2784F83B0045E000280ED580
:1008C00096F8380000F01400102808D1726B706997
:1008D000121A306A121A511A0029C8BF3162BDE8D3
:1008E000F38B01968DF800B0404649462A46EB1737
:1008F00000F07AFD30327F1ED2B23A2A04DB9DF836
:100900000000A0F151018A18E255404649462A46A6
:10091000EB1700F069FD894600228046914508BF2B
:10092000904504D00198C168E0198142DCD3082DBC
:10093000019E09D196F83800010705D5E15D3029FF
:1009400002D07F1E3020E055E019F060C7F13C0175
:10095000306BB1618142B1DA411A31624FF6EF700A
:10096000318F01403187BDE8F38B2DE9D043064636
:100970000F4614464FF00008DFF8289412E0E00715
:1009800007D542464B463046394600F0A5FD06469F
:100990000F464046494642464B4600F09DFD6410D6
:1009A00080468946002CEAD130463946BDE8D083DE
:1009B0002DE9F04705468A468EB0D5E900894AF010
:1009C0002000612802AF00900AD0286B002802D5D1
:1009D0000620286304E001BF0098672801212963ED
:1009E000D5E9006460004015401C0DD121030BD0F7
:1009F000AAF1610103201A29A86102D20FF2E8616D
:100A000010E00FF2E8610DE060004015401C0ED1CF
:100A100021030CD1AAF1610103201A29A86116D380
:100A20000FF2D061E868032200F068FCCAE124F00C
:100A30000043B3F5801F26F0000211D2002083424C
:100A400008BF8242019005D13046214612E00FF2E4
:100A5000A061E7E701AA3046214600F00FFE09E059
:100A6000D148D24900EB1350019004EA0102D04969
:100A700030461143C5E90001009A612A0DD1E868AA
:100A800030210170811CE960BAF1610F0CBF78213F
:100A9000582141706869801C6861D5E90023CDE95F
:100AA0000C23DDE90C0121F00041002200239942D2
:100AB00004BF9042002000F04D810098612840F072
:100AC0009C80286B00284CBF2120401C0090404691
:100AD000009E761C4946DDE90C8900F007FE01986E
:100AE0008DF8082038BF89F00049001F0190002EC2
:100AF0000DF1090040F33C8107464046494600227B
:100B0000002300F00BFE80F032814800400D00F120
:100B10001C0211D0002A0FDD40F2FF70824205DB7B
:100B2000A44909F000400143002012E06FF31E5178
:100B300041EA025140460CE029F0004128F0000053
:100B4000994208BF98420FBF49461C22494600F00F
:100B5000FDFD8046894600F097FEF61F002E0446F4
:100B600009DD00F0AFFE02460B464046494600F064
:100B7000BBFE80468946F81D072104E004F00F0201
:100B800000F8012D2411002C01DD491EF6D5491E67
:100B90005CBF002200F8012DF9D5E4E000201946E1
:100BA00002AA0A4400E05B1E12F80149491E844271
:100BB000F9D00F2804D10DF10900425C521C4254B7
:100BC000002904D50198001D02AF5B1C0190581E3E
:100BD0000CD43918AAF13A040A783032D2B2392A40
:100BE000C8BFA218401E01F80129F5D5286B0028BE
:100BF00040F1AF80591E2963ABE04046494600F002
:100C000075FD019938BF89F0004947F2975041437B
:100C1000694A91FBF2F20192D2F1070204DD4046EB
:100C20004946FFF7A2FE0AE0524200206349FFF75F
:100C30009CFE02460B464046494600F0C7FE8046F1
:100C400000985F4E6628286B06BF019C0A34062474
:100C50002418142CC8BF142430208DF808008946AD
:100C60000DF1090000E03846002C34DD074640460F
:100C7000494600F0CFFF01460A4607F10803042069
:100C80000A27B2FBF7F707EB870EA2EB4E023032D2
:100C900003F8012C0A22B7FBF2F202EB820EA7EB5B
:100CA0004E073037401E03F8027DE9D1083C002C86
:100CB00003F10807D7DD084600F0C0FF02460B46E7
:100CC0004046494600F010FE0022334600F004FC86
:100CD00080468946CBE70DF10901401A0DF109075D
:100CE00004E00199491E401E01917F1C397830298A
:100CF000F7D0009A662A02D10199491C03E0652ABF
:100D00000CBF012100212B6BCB189842B8BF431EAA
:100D1000002B1ED4834204DAF85C3528A8BF3920A2
:100D200000DA302019467A1E02EB010800E05B1E53
:100D300018F80199491E8145F9D0392802D1785C0B
:100D4000401C7854002904D50198401C17465B1CB0
:100D50000190019800B200901BB23A4651462846D5
:100D600000F033F82EE0C71D002E3FF7C6AE384620
:100D70000DF10901401A009903468842C8BF0B468D
:100D8000002B0DF109073FF531AF8342BFF606AFE7
:100D90000DF10900C05C07287FF700AF0F20FEE6C9
:100DA000CBCCCC0C0000244002FCFFFFFFFF0F80E7
:100DB0000000E03F0000F07FA08601000000F03F4F
:100DC00084D797410EB0BDE8F0872DE9F04F83B08E
:100DD00006468B469246994600F000FAB9F1000F9C
:100DE000406AD6F83080077803DC4FF001090FF233
:100DF000083ABDF930504BF02000662808BF6D1C42
:100E000017D0672840F0878015F1040FC0F2898061
:100E1000454580F2868096F838006D1C010702D4A3
:100E2000C145B8BFC8462DB2B8EB050848BF4FF062
:100E300000082DB2F068B169002D27DC4A1C302370
:100E40004354B8F1000F03DC96F83800010702D5CF
:100E5000F0688754521C18EB050FB8BFC8F10005A5
:100E60002DB2A8446842C845B8BFC146B26170629D
:100E70000FFA89F4F461F068B369224651461844C8
:100E800000F03CFAA8EB0400B062C6E02A469145A7
:100E9000084418DA4A46514600F030FAB06948442E
:100EA000B061A5EB0901B8F1000F716203DC96F89F
:100EB00038100A0704D5F1680F54F069401CF0613E
:100EC000C6F82880A9E0514600F018FAB069281841
:100ED000B8F1000FA9EB050303DC96F838100A07F8
:100EE00002D5F1680F54401CB0610FFA83F9C84570
:100EF000B8BFC146F068B3690FFA89F422460AEB1D
:100F00000501184400F0FAF9B0692044B061A8EB7B
:100F10000400706281E0BBF1610F16D14FF0700BDD
:100F200018E0C14504DA96F838100A0758BFC846D9
:100F3000B8F1010848BF4FF00008BBF1670F14BFBC
:100F40004FF0450B4FF0650B04E0BBF1410F08BFBC
:100F50004FF0500BB169F368481CB061B8F1000F55
:100F60001AF8012B5A5403DC96F838100A0719D5E1
:100F7000F168431CB3610F54B8F1000F12DDA9F101
:100F800001073FB2B845B8BF4746F0683FB23A469E
:100F90005146184400F0B2F9B0693818B061A8EBB6
:100FA00007007062F068B1690844002D80F800B055
:100FB00003D42B214170811C03E02D2141706D422F
:100FC000811C00206A460AE02B460A2493FBF4F5B4
:100FD00005EB8504A3EB440302F8013B401C2DB252
:100FE000002DF1DC012806DC4BF02002652A04BF4D
:100FF000302201F8012B48B9302001F8010B07E03D
:10100000401E1DF80020303201F8012B0028F7DCCB
:10101000F068B2691044091AF16196F8380000F0DE
:10102000140010280DD17169B0694118706A411817
:10103000F0694118B06A4118706B8142BCBF411A17
:10104000316203B0BDE8F08FF8B505460E4617468D
:101050001C46002074B117F8011BB068A847B060A7
:1010600030B1F06A401CF0620020641EF3D1F2BD82
:101070004FF0FF30F2BD00007072696E74665F73EE
:101080003A20256E20646973616C6C6F776564002B
:101090007072696E74663A2062616420256E206108
:1010A0007267756D656E74007072696E74665F73D9
:1010B0003A2062616420257320617267756D656EE8
:1010C000740000007072696E74665F733A2062612A
:1010D0006420256C7320617267756D656E74000005
:1010E00000000000000000006E616E004E414E00E6
:1010F000696E6600494E46003000F0B40246106842
:1011000095681318506803EB5004C00721D54D446F
:101110001FE0F0BC02F10C00704713F8017B05F8EA
:10112000017B491EF9D1A0B1B60813F8011B06F0E6
:101130000306032E08BF13F8016B01EB0621494299
:10114000801C294405D011F8016B05F8016B401E85
:10115000F9D1A342DDD013F8016B16F0030104BFEF
:1011600013F8011BC91C30090F28DAD113F8010B41
:101170000F30D6E71A48704730B45368D418042BA0
:1011800009DA41B1057804F8015B10F8015B15B18B
:101190005B1C491EF3E7536030BC704738B51446FA
:1011A0001D4661B1FFF7E8FF61686A6B2046904712
:1011B0006FF00102811A02D0491E03D005E06FF0E2
:1011C000010032BD4FF0FF3032BD0021616032BD01
:1011D000DA6B1047024BE1E7014BF9E70148704732
:1011E00060110020281100200278C9B28A421AB189
:1011F0001CBF10F8012FF9E718BF00207047B1F5A8
:10120000807F02D34FF0FF3070470170012070479C
:101210000078401E8041C043C00F704780B508B9B8
:101220000FF21C0005490B681BB1222200219847D0
:1012300001E000F010FD222002BD0000441D00204E
:10124000636F6E73747261696E742068616E646C32
:1012500065723A20626164206D6573736167650031
:1012600000F10103810704D010F8011B89B1810747
:10127000FAD10268B2F10131914311F0803F04BF0D
:1012800050F8042FF6E710F8011B11B110F8011BFC
:10129000FBE7C01A70470000C9B2830706D0521E90
:1012A00022D310F8013B9942F7D11FE0083A13D33B
:1012B00002F1040241EA012141EA014150F8043BF4
:1012C000121F21BF4B40A3F1013C2CEA030C1CF080
:1012D000803FF3D0C9B2001F083210F8013B521E04
:1012E00028BF91EA030FF8D818BF0120401E7047AD
:1012F00080B5FFF73FFF006C02BD000062B38B07B3
:1013000008D0521E11F8013B00F8013B00F0248088
:101310008B07F6D1830740F0208000BF103A07D337
:1013200030B4B1E83810103AA0E83810F9D230BC27
:10133000530724BFB1E80810A0E8081044BF51F8D3
:10134000043B40F8043BD20724BF31F8022B20F8BD
:10135000022B44BF0B7803707047121F17D35B003A
:1013600009D151F8043B20F8023B1B0C121F20F856
:10137000023BF6D20BE051F8043B00F8013B1B0A9C
:1013800020F8023B1B0C121F00F8013BF3D238BFC0
:10139000121D521E24BF11F8013B00F8013BF8D882
:1013A0007047000013F0004C03D55B42524263F1DA
:1013B00000039CEA210C00F0178010B5644603D3AB
:1013C0004942404261F1000100F00EF8640004D38C
:1013D0004942404261F10001244203D55B4252423E
:1013E00063F1000310BD00001B4213D1094236D146
:1013F0002AB18446B0FBF2F002FB10C2704700F045
:101400002DBCFCD30022002370470B0002000021FA
:1014100000207047904271EB030CF6D370B5B1FA1F
:1014200081F4B3FA83F52C1BA340C4F1200532FAF2
:1014300005F63343A2405FF00046E64002E05B0859
:101440005FEA3202841A71EB030524BF2046294665
:101450007641F4D302000B003000002170BD012A58
:10146000CFD970B5140C20D0B1FA81F4B2FA82F55C
:10147000C4F120046419B4F12006D6D3B2405FF061
:101480000044F440002502E052085FEA3303C61A24
:1014900071EB020E24BF3046714664416D41F3D3B7
:1014A00002000B002000290070BD0C46B1FBF2F1D8
:1014B00002FB11452D0445EA1045B5FBF2F402FB91
:1014C000145580B240EA0545B5FBF2F002FB10521C
:1014D00040EA044070BD0000B0B581EA030C0CF096
:1014E000004C40F2FF7515EA11541DBF15EA135761
:1014F000AC42AF4239E0E41923EA455343F4801388
:10150000C90241F0004141EA505EC7021100A7FB49
:10151000020200284FF00000EEFB01204FF0000116
:10152000E3FB072118BF42F00102401800214941A6
:10153000E3FB0E01A4F580640F0302D25200404188
:10154000494154F101046CDD470872F1004250F149
:10155000000051EB0451A1F580115CBF41EA0C0180
:10156000B0BD4CEA05510020B0BD05EA1357AC42AE
:1015700014BFAF4241E050EA410E1CBF52EA430E95
:1015800002E061460020B0BD24423C441BD15FEA2A
:10159000070EF6D0090302BF01460020AEF1140E7B
:1015A000B1FA81F7AEEB070401FA07FE0C37C7F179
:1015B000200100FA07F7C8404EEA000E23EA45531F
:1015C00043F48013A2E733F00043B3FA83F704BF78
:1015D000B2FA82FE77440B3FE41BB7F1200E2FBF17
:1015E00002FA0EF3BB40C7F1200E22FA0EFE38BFFE
:1015F00043EA0E03BA40641C82E750EA410E14BF6E
:1016000052EA430E6FF000014FF4001717EB430F3F
:101610008ABF194617EB410FB5E74CEA0551002088
:10162000B0BDD4F10104B4F120070FDAC4F12007F2
:10163000520828BF42F0010210FA07F501FA07F735
:10164000E1BF2A43E0403843E1400FE0352C98DC0D
:10165000C7F1200452EA400220FA07F218BF42F014
:10166000010231FA07F0A1400A43002172F1004261
:1016700050F1000051EB0C01B0BD000010B5144654
:1016800000F002F8226010BDC1F30A5343B14A00D2
:1016900012F5001F28D2A3F2FE32A1EB02517047CF
:1016A00050EA410C20D001F0004C31EA0C01B1FAB3
:1016B00081F204BFB0FA80F3D2180B3AB2F12003E2
:1016C0002CBF00FA03F1914041EA0C013EBFC2F188
:1016D000200C20FA0CF319439040524240F2FD33A3
:1016E000D21A01EB03517047002270474FF4001CDF
:1016F0001CEB410F94BF1CEB430F09E041EA030CC4
:1017000050EA4C0C52EA0C0C03D2994208BF9042AA
:10171000704714BF8B428242704700004FF4001C98
:101720001CEB410F94BF1CEB430F09E041EA030C93
:1017300050EA4C0C52EA0C0C03D28B4208BF824296
:10174000704714BF9942904270470000124254D42F
:1017500040F2FF7C1CEA11530FD0634531D09B1837
:1017600063453CBF01EB0251704701F0004141EA83
:101770000C510020AFF30080704750EA410320D0A5
:1017800001F0004C91EA0C011CD0B1FA81F30B3B43
:101790009A420DD9D21A994051EA0C01C3F1200C9A
:1017A00020FA0CFC61449840531C40F2FF7CD7E7C0
:1017B000914041EA0C01C2F1200C20FA0CF31943CC
:1017C00090407047B0FA80F31533202BE0D3202AE5
:1017D000EED3203A203B9A4209D9D21A00FA03F1FB
:1017E00041EA0C010020531C40F2FF7CB8E700FAEC
:1017F00002F141EA0C0100207047524240F2FF7CA6
:101800001CEA11530DD06345DBD0B2EB030C3CBF97
:10181000A1EB025170470CF1010221EA035141F49E
:10182000801150EA410CCCD001F0004C352A27DC65
:1018300030B481EA0C01B2F1200309DAC2F12003CD
:10184000044601FA03F5D0402843D1409C400CE007
:10185000C3F12002450020FA03F418BF44F001044C
:1018600021FA03F091400C43002174F1004550F13E
:10187000000051EB0C01244230BC7FF47BAF704779
:101880006146002076E70000C1F30A5340F2FE32C1
:101890009B1A14DDD3F120034FEAE17208DDC9027F
:1018A00041EA505141F00040D84080185040704704
:1018B00003F2E13010B1D24382F0004070470020C3
:1018C00070470000C11768B14840401AB0FA80F272
:1018D0009040D21CC907C2F5846241EA025202EB71
:1018E000D02140057047000070B44FF0004591EAE8
:1018F000030F40F1BD816B40841A71EB030603D2E4
:10190000001BB141121973414FF4001C1CEB410F35
:1019100034BF7CEB430442E00C0DA4EB1356352E90
:101920004FDC45EAC323DB0A45EAC121C912B6F1FF
:1019300020050DDD63FA05F6EB4086EA0305124249
:1019400018BF45F00105C01851F100010CD213E099
:1019500062FA06F5F2405540F3415A40B340F34075
:101960005A408018594107D349085FEA30005FEABE
:10197000350528BF45F0010501F58011420875F1D4
:10198000004250F1000041EB04514E0016F5001FDB
:1019900070BC38BF70470020090D090570471CEB6B
:1019A000410F10D252EA43060BD0BCEB410F05D8D1
:1019B0000C0DAB43661E342EB6DD02E0AB4380183F
:1019C000594170BC704770BC70470000F0B540F2E0
:1019D000FF7581EA030C0CF0004C15EA11541DBF91
:1019E00015EA1357AC42AF42E5E0BC41C1F3130125
:1019F000C3F31303801A994143F4801304D2641E85
:101A00004000494180185941C90241EA5051B1FB97
:101A1000F3F603FB1611A2FB0675D7EBC020A94114
:101A200002D2761E80185941C90241EA5051B1FBD9
:101A3000F3FE03FB1E11A2FB0E75D7EBC020A941DC
:101A400003D2AEF1010E80185941890241EA90514A
:101A5000760546EA8E2EB1FBF3F603FB1611A2FBC8
:101A60000675D7EB8020A94102D2761E8018594115
:101A7000C90241EA50514EEA060EB1FBF3F603FBF0
:101A80001611A2FB0675D7EBC020A94102D2761E23
:101A900080185941C90241EA5051B1FBF3F703FBE9
:101AA0001711A2FB0735D3EBC020A94167F100074E
:101AB0000CBF004247F0010766F3D5274FEA1E31FD
:101AC000B80814F5806412DDBD0775F1004250EBD3
:101AD0000E5051EB045111F5801F5CBF41EA0C011F
:101AE000F0BD4CF07F6141F0E0410020F0BDBD074A
:101AF0006D0840EA0E5041F48011D4F10104B4F1B4
:101B000020060ADAC4F120060200E04001FA06F3DA
:101B1000E1401843B24015430EE0342C13DCC6F10B
:101B2000200445EA40056D0820FA06F2154321FA23
:101B300006F0A1400D43002175F1004250F1000074
:101B400051EB0C01F0BD00205FEA0C01F0BDCFB9F4
:101B500092185B41B3FA83F704BFB2FA82F6BF1959
:101B60000B3FB7F120062FBF02FA06F3BB40C7F1C7
:101B7000200622FA06F638BF3343BA401CB1E419F6
:101B8000641E33E77F4231F00041B1FA81F404BFB3
:101B9000B0FA80F6A4190B3CB4F120062FBF00FA6E
:101BA00006F1A140C4F1200620FA06F638BF314301
:101BB000A0403C1B1AE7AC421ABF05EA1357AF42DC
:101BC00012E050EA41061CBF52EA4306BFE750EA62
:101BD0004107304661461CBF41EA0551F0BD52EA5B
:101BE000430C08BFC143F0BD00204FF4001616EBB4
:101BF000410F98BF16EB430F08BF16EB410F24BFF0
:101C0000C14305E016EB430F0CBF61464CEA05519A
:101C1000F0BD0000400D491840EA81200CD2490D6A
:101C2000A1F58061491C40F0004005DBD1F11F01A6
:101C300054BFC840C017704700207047014648B1E4
:101C4000B0FA80F18840C91CC1F58461090501EB37
:101C5000D02140057047012000F0BEB87047000059
:101C600070B44FF0004591EA030F7FF545AE6B402D
:101C7000841A71EB030604D26E40001BB1411219A5
:101C800073414FF4001C1CEB410F34BF7CEB430647
:101C900082E00C0DA4EB1356362E7BDC012E45EAB8
:101CA000C32341DC43EA525312BFD20292025B08C3
:101CB000240545EAC12141EA5051D2EBC0209941A7
:101CC00025D407D1B0FA80F610FA06F162D00020D0
:101CD000203608E0B1FA81F6B140C6F1200220FAC0
:101CE00002F21143B0404FEAF474B4EB465434F0BE
:101CF00001064FEA74040AD8D6F50016760D04F0F2
:101D00000044F04061FA06F25040F1404840C00AF9
:101D100040EA415021F0004128BF5FEA500550F1F0
:101D2000000044EBD12135E0DB0A45EAC121C90AB4
:101D3000B6F120050EDD42EA0242120CC5F1200682
:101D400003FA06F6EB4042EA06056D42984161F15E
:101D500000010DE062FA06F5F240554063FA06FC18
:101D600082EA0C02F3405A406D42904161EB03015C
:101D700011F4801F05D1641E620502D06D00404140
:101D8000494121F48011430875F1004350F10000EE
:101D900041EB045170BC70471CEB410F15D223F08E
:101DA000004352EA43060BD04FEA4C0CBCEB410F08
:101DB00004D80C0D661E342EB7DDEBE7801A99416E
:101DC00050EA410608BF0021E4E708BF1CEB430FBF
:101DD00028BF6FF00001DDE780B5AFF30080024A55
:101DE00011001820ABBEFBE7260002000000000037
:101DF0002DE9F84C2DED0A8B82B041EC180B149CA8
:101E000043EC192B0CB10020206051EC190B20F091
:101E1000000621F000470020874208BF864213D009
:101E200053EC182BDFF8281600F076FD0CD0DFF805
:101E30001C1600F071FD0BD151EC190B4800401538
:101E4000401C05D1090303D102B0DFF80416F9E202
:101E500051EC180B48004015401C0FD051EC180BEA
:101E600021F000410022914208BF904206D051EC7F
:101E7000190B48004015401C40F0F78051EC180B3E
:101E800048004015401C05D1090318BF51EC180B40
:101E900040F0D68251EC190B48004015401C05D18A
:101EA000090318BF51EC190B40F0CA8251EC190B11
:101EB000480001244015401C62D051EC190B4B0026
:101EC00043EAD07342000026B34208BFB24204D1B5
:101ED000B0EE49AAF0EE69AA19E040F23345A5EB4D
:101EE0005352352A04DB00F0000001F000410CE001
:101EF000202A03DD203AD140914000E001D10020AA
:101F000003E0002AC4BFD040904041EC1A0B53ECD0
:101F1000192B51EC1A0B00F0FFFC18BF00244B00EA
:101F200043EAD0734200B34208BFB24204D1B0EEDC
:101F30004A0AF0EE6A0A19E040F23445A5EB535222
:101F4000352A04DB00F0000001F000410CE0202AFB
:101F500003DD203AD140914000E001D1002003E0B0
:101F6000002AC4BFD040904041EC100B44B153EC68
:101F70001A2B51EC100B00F0CFFC0CBF00240124F5
:101F800051EC180B48004015401C0ED109030CD130
:101F900051EC180BC80F25D153EC192BDA0F0CBFDD
:101FA0009FED8D0B9FED8E0B48E251EC190B480015
:101FB0004015401C28D1090326D153EC182B23F0DF
:101FC0000041B1F5801F22F000002ED2002399427B
:101FD00008BF984200932DD06A4651EC180BFFF7CA
:101FE0004DFB27E051EC190BC80F06D1002C0CBF9C
:101FF0009FED790B9FED7C0B20E2002C0CBF9FED39
:10200000780B9FED7B0B19E2002C1ABF51EC180BDB
:10201000C80F002053EC192BDA0F1FD100280CBF7A
:102020009FED6F0B9FED720B08E2DFF8284404EB85
:102030001150009051EC190BC80F07D100990029DD
:10204000CCBF9FED650B9FED660BF7E10098002874
:10205000CCBF9FED630B9FED600BEFE100280CBF41
:102060009FED5D0B9FED600BE8E151EC190B4B0010
:1020700043EAD073420000260027BB4208BFB242A9
:1020800004D1B0EE49AAF0EE69AA19E040F2334556
:10209000A5EB5352352A04DB00F0000001F00041AB
:1020A0000CE0202A03DD203AD140914000E001D12C
:1020B000002003E0002AC4BFD040904041EC1A0B3E
:1020C00051EC180BC80F11D053EC192B51EC1A0B13
:1020D00000F022FC0AD0AFF3008002B04FF0FF30D6
:1020E000BDEC0A8B6FF00041BDE8F48C53EC182B6B
:1020F00023F00041B1F5801F22F000000AD2B9425E
:1021000008BFB042009611D06A4651EC180BFFF799
:10211000B5FA09E0CF4E06EB11500090DFF8A0139E
:10212000CD4803401046194341EC180B51EC180BF5
:10213000C80F08BF002638D021F0004053EC182B00
:10214000034643EC182B51EC1A0B4B0043EAD073B7
:1021500042000026BB4208BFB24204D1B0EE4A0A98
:10216000F0EE6A0A19E040F23445A5EB5352352AE5
:1021700004DB00F0000001F000410CE0202A03DD48
:10218000203AD140914000E001D1002003E0002A34
:10219000C4BFD040904041EC100B53EC1A2B51ECD3
:1021A000100B00F0B9FB18BF01260098012823D1BD
:1021B00051EC180BA94AAA4BFFF798FA1CD253EC22
:1021C000182B00204FF08041FFF786F900259FED86
:1021D000C3BB41EC180B2DE0000000000000F07FB5
:1021E0000000000000000000000000000000F0FF00
:1021F000000000000000008053EC182B00209949DB
:10220000FFF76AF99FED98AB53EC1A2BFFF728FD07
:10221000FFF73AFBA0F120052846FFF753FB002209
:10222000934BFFF759F953EC1A2BFFF719FD41ECCB
:102230001B0B6D0151EC180B53EC1B2BFFF754FBE0
:1022400041EC1A0B53EC182B51EC1B0BFFF708FD5C
:1022500002460B4651EC1A0BFFF7B8FB41EC180B8A
:1022600053EC182BFFF738F941EC1C0B53EC1C2BEB
:1022700080488149FFF730F9804A814BFFF7F0FC35
:1022800053EC1C2BFFF728F97E4A7F4BFFF7E8FC45
:1022900053EC1C2BFFF720F97C4A7D4BFFF7E0FC49
:1022A00053EC1C2BFFF718F97A4A7B4BFFF7D8FC4D
:1022B00053EC1C2BFFF710F9784A794BFFF7D0FC51
:1022C00053EC1C2BFFF708F9764A774BFFF7C8FC55
:1022D00053EC1C2BFFF700F953EC1A2BFFF704FB10
:1022E00082468B4600205A4953EC1B2BFFF7FCFA21
:1022F00000224FF08043FFF7EFF852465B46FFF7AE
:10230000AFFC53EC182BFFF7E7F841EC100B0FF282
:10231000E810471953EC1A2B51EC100BFFF7A0FCF7
:1023200041EC180B0098FFF7CDFAD7E90023FFF72F
:1023300097FC41EC1A0B53EC182B5C485C49FFF7F7
:10234000CBF853EC1A2BFFF78BFC53EC192BFFF750
:10235000C3F80022574BFFF7C9F941EC1B0B6AD3B6
:102360000122554BFFF7DAF95BD9C80F53EC1B2B51
:102370001ABF002051495249FFF772FCFFF784FA57
:10238000054653EC182B51EC190BFFF7A5F88246C4
:102390008B46D7E90201D7E90423FFF761FC53EC30
:1023A000192BFFF799F89FED47BB53EC1B2BFFF759
:1023B00093F852465B46FFF753FCCDE9000153EC1E
:1023C0001A2B51EC190BFFF787F807468B46284666
:1023D000FFF778FA02460B4638465946FFF784FA6B
:1023E00053EC1B2BFFF778F8DDE90023FFF738FCEF
:1023F0000CB12560002500950022154B00F09CFAD9
:1024000041EC100B20F0000221F000430020834239
:1024100008BF82420FD048004015401C03D1090379
:1024200001D19FED2A0B4EB151EC100B81F0004110
:1024300041EC100B02E09FED270BF4E751EC100B81
:102440000DF1080DBDEC0A8BBDE8F48C0000F0BF67
:102450000000F03F02FCFFFFFFFF0F80CD3B7F66D7
:102460009EA0E63F00005040000000000000E03F5A
:102470000000903FF7DE29BFD8F8C23FF4B3FECC8E
:102480001A99C33F62CB68D96F46C73FC6C912DAF3
:10249000C471CC3F4AE98A942449D23FF75F9799A7
:1024A0009999D93FBC5555555555E53FFE822B6549
:1024B0004715F73F0000E0C00000E0400000E0BF2B
:1024C0000000E03FEF39FAFE422EE63F0000000038
:1024D0000000F07F0000000000000000000000008D
:1024E0000000F03F80B541EC100B0020009051EC53
:1024F000100BFFF77DFC04BD000000000000F0BFE2
:1025000000000000000000800000000000000080CB
:102510000000000000000000000000C05294EEBF68
:1025200000000048204E51BE000000F86467BCBCAB
:102530000000000000000000000000208133EDBF1B
:1025400000000080B3DB14BE000000506706A3BC8F
:102550000000000000000000000000D0E9DCEBBF3C
:1025600000000008C39259BE00000080B0D3B8BC80
:10257000000000000000000000000070F98FEABFBA
:10258000000000C0A51028BE000000E8BFC0B0BC1D
:10259000000000000000000000000070284CE9BFAF
:1025A00000000060134B42BE000000C03D20B8BCDC
:1025B000000000000000000000000050FA10E8BF1A
:1025C000000000C05FF62BBE000000905C71A7BC4D
:1025D000000000000000000000000020FCDDE6BF5D
:1025E000000000C0F8F154BE00000018E9F6B9BCC4
:1025F0000000000000000000000000D0C3B2E5BFF2
:1026000000000070E43254BE00000050DB06B4BC91
:10261000000000000000000000000010EF8EE4BF8A
:1026200000000020F36252BE000000C02A879ABC5E
:102630000000000000000000000000B02272E3BFB4
:10264000000000F0E8E056BE00000028352DBDBCBB
:102650000000000000000000000000000A5CE2BF73
:10266000000000B0FA8E41BE00000040AE6FBDBC5D
:10267000000000000000000000000000564CE1BF18
:10268000000000F015CD5FBE00000000141C90BCDF
:10269000000000000000000000000040BD42E0BF5C
:1026A00000000030F93457BE000000E06C1E93BCFF
:1026B0000000000000000000000000E0F57DDEBF2B
:1026C000000000B08A535EBE00000080DA77AABC2A
:1026D0000000000000000000000000C09D81DCBF81
:1026E00000000000FFA226BE0000006057E2B0BC60
:1026F000000000000000000000000060F98FDABF59
:10270000000000580A8151BE000000F05F60B8BCB4
:1027100000000000000000000000000098A8D8BFE2
:10272000000000607A7F45BE000000D05433A3BC97
:102730000000000000000000000000600FCBD6BFCA
:10274000000000D091CB40BE000000406D1BA0BC3B
:102750000000000000000000000000A0FBF6D4BF55
:1027600000000098C5CE52BE000000003A397EBC81
:102770000000000000000000000000E0FE2BD3BFBE
:102780000000004073872BBE00000000926879BCF7
:10279000000000000000000000000040C069D1BF40
:1027A00000000058F16353BE00000080438D7CBCE4
:1027B000000000000000000000000080D85FCFBFD4
:1027C000000000181F8354BE000000B03F42A2BCAE
:1027D00000000000000000000000008067FCCBBF8C
:1027E00000000060FAFF53BE00000050E00DB8BCCE
:1027F00000000000000000000000000098A8C8BF12
:10280000000000607A7F35BE000000C0543393BCE6
:10281000000000000000000000000000DC63C5BFF5
:1028200000000058D6FF54BE00000000396490BC80
:102830000000000000000000000000C0AD2DC2BF7D
:1028400000000080A45915BE000000E0484BABBC5E
:102850000000000000000000000000801A0BBEBF56
:1028600000000050BF3C5ABE000000A0B364B6BCDC
:1028700000000000000000000000008004D6B7BF88
:1028800000000040BBCF36BE0000008076CEA8BC62
:1028900000000000000000000000008032BBB1BF5B
:1028A000000000402A0043BE00000028C60CBDBC4A
:1028B0000000000000000000000000009473A7BFAB
:1028C000000000182B3B59BE000000C0E55DA5BC10
:1028D000000000000000000000000000EE4397BF71
:1028E000000000A0E6C340BE00000020958DB5BCEE
:1028F0000000000000000000000000000000008058
:1029000000000000000000800000000000000080C7
:10291000000000000000000090420CD141EA030CCE
:1029200050EA4C0C07D0994205D14FF4001C1CEB27
:10293000410F38BF89427047F8B52DED0A8B41EC45
:102940001A0B48004015109D401C43EC182B24D056
:1029500051EC1A0B21F000410022914208BF904235
:102960001BD051EC180B48004015401C15D051EC01
:10297000180B31F0004108BF90420ED051EC1A0BF9
:10298000DFF87433FEF7B2FE80F0B18051EC180B23
:102990009FED870B01F00042BAE051EC1A0B4800A2
:1029A0004015401C02D1090340F0A08151EC180BE6
:1029B00048004015401C01D109035DD151EC180BB2
:1029C00020F0000221F000430020834208BF824231
:1029D00008D151EC1A0B48004015401C4CD109039A
:1029E0004AD10DE048004015401C12D1090310D116
:1029F00051EC1A0B48004015401C3DD109033BD156
:102A0000AFF30080BDEC0A8B4FF0FF306FF0004158
:102A1000F4BD51EC1A0B21F0004100220023994231
:102A200008BF90422BD151EC180B4800400D05EB2C
:102A3000000237D151EC180B21F00041994208BF38
:102A4000984206D02A4651EC180BFEF77FFE41EC67
:102A5000180B51EC180B20F0000221F0004300206D
:102A6000834208BF824205D048004015401C03D174
:102A7000090301D1AFF3008051EC180B38E151ECA0
:102A80001A0B48004015401C2AD1090328D153ECE9
:102A90001A2B51EC180BBDEC0A8B01B0BDE8F040CD
:102AA000FEF71ABD002AC5DD40F2FF7082420FDB3F
:102AB0009FEDA50B51EC100B084653EC182B03F0BF
:102AC0000041084353EC102B034643EC182BC0E79E
:102AD0006FF31E5141EA025153EC182B0B46F4E7F9
:102AE00051EC180B9FED320B01F0004210E0012277
:102AF000824BFEF713FE11D89FED930B51EC100B98
:102B00000A4651EC180BAFF3008001F0004002437D
:102B100051EC100BBDEC0A8B1146F4BD53EC1A2B93
:102B200077487849FEF7D8FC41EC100B53EC102B9A
:102B30009FED759B03F0004251EC190B0C461443BA
:102B400053EC192B51EC100B2346FFF789F8FEF7D5
:102B50009BFE0446FEF7B6FE41EC1B0B53EC1B2B11
:102B60004FF078406A49FEF7B7FC02460B4651EC3D
:102B70001A0BFEF7B9FE06460F4653EC1B2B6548B1
:102B80006549FEF7A9FC02460B4630463946FEF77A
:102B9000ABFE41EC1A0B21F0004100225F4BFEF727
:102BA000A5FD09D2B0EE48AAF0EE68AA56E000BF33
:102BB000000000000000000053EC1A2B51EC1A0B2F
:102BC000FEF78AFC41EC1B0B53EC1B2B5448554978
:102BD000FEF782FC544A554BFFF742F853EC1B2B8F
:102BE000FEF77AFC41EC1C0B53EC1B2B504851496F
:102BF000FEF772FC504A514BFFF732F853EC1B2B97
:102C0000FEF76AFC53EC192BFFF72AF853EC1A2B4A
:102C1000FEF762FC41EC190B53EC1C2BFFF720F87C
:102C20009FED47AB53EC1A2BFFF71AF806460F46F9
:102C300051EC1C0B53EC192BFEF756FE53EC1A2BE0
:102C4000FFF70EF802460B4630463946FEF7BEFE49
:102C500053EC182BFEF740FC41EC1A0B51EC1A0B0D
:102C60002A194800400D02EB00031DD0002B1BDD8C
:102C700040F2FF7083420DDB9FED330B51EC100BE4
:102C8000084653EC1A2B03F00041084353EC102B79
:102C9000034606E06FF31E5141EA035153EC1A2B31
:102CA0000B4643EC1A2B0EE051EC1A0B21F00041BD
:102CB0000024A14208BFA04205D051EC1A0BFEF738
:102CC00045FD41EC1A0B51EC1A0B20F0000221F0EB
:102CD00000430020834208BF824205D048004015CF
:102CE000401C03D1090301D1AFF3008051EC1A0B52
:102CF000BDEC0A8BF4BD000000C89CC000C89C401D
:102D0000FE822B654715F73F000000000000E03F02
:102D1000422EE63FF2E4D5BCE7E84B3E0000903C93
:102D2000112E5781A03F503F5843128C8F71BC3FEA
:102D30004BE8A541B752013F0BBDF3DAE8708C3F79
:102D4000000000000000F03F000000000000F07FE5
:102D5000F8B5040001D10120F2BD04F13C0568780A
:102D600020B900212970204600F0F4FB00F054F84F
:102D700000F0CBFC0146DFF8A002DFF8A032B1FB87
:102D8000F0F2206842606068984206D34FF4967073
:102D900042434FF47A76B2FBF6F22768521C3A624D
:102DA00066689E4208D27600B1FBF6F0C0F30B01D4
:102DB000042913D2042011E0A06820B906EB4606CE
:102DC000B1FBF6F005E019225643B1FBF6F040F4F2
:102DD000804001050CBF012040F400402168C8611B
:102DE000E269206A0243206802602169E0680143C9
:102DF000206881606169A06901432068C160206822
:102E0000016841F0010101600020686020206870C5
:102E100000202063A870F2BD24206870206801683B
:102E200049084900016070472DE9F04782B000F081
:102E300027F900F013F946D100F016F9002842D125
:102E4000387801283FD000F0CFF8212000F0BAF800
:102E500000F0AEF940B17868042802D10021397041
:102E60002DE0002038702CE0009000F0A4F8308DA8
:102E700000282BD000F0E6F8D8B900F0D7F800F021
:102E8000E9F8308D401E308531684A69530708D50E
:102E900080B230B100F0C4F800F0DCF8308D411E93
:102EA000318500F0CAF80028E1D07868042808D1FC
:102EB00002E07868042804D1306800F06AF9012043
:102EC00002E0032000E00220BDE8F68700F0DEF813
:102ED000FAE72DE9F04782B000F0D2F800F0BEF832
:102EE00063D100F0C1F800285FD1387801285CD0A8
:102EF00000F07AF8222000F065F800F09CF940B16B
:102F00007868042802D10021397046E0002038702A
:102F100041E0308D08B9009004E03168012804D107
:102F200000F0CBF800F02FF911E00228086802D178
:102F300000F0EBF804E040F48060086000210091AC
:102F400000F039F803E000F0BFF800F080F8308DB1
:102F500000282DD0042818D2012804D100F0D0F880
:102F60000028F0D014E000F0A2F806D100F0C3F879
:102F7000002810D100F0D4F8E5E700F0BCF80028F4
:102F800009D100F0DFF830B9F4E700F0B9F830B15A
:102F90007868202801D1032008E0012006E000F035
:102FA0009AF8D4D500F07DF8CFE70220BDE8F68787
:102FB00000F02CF8FAE730684169009180690090D0
:102FC0000099704778702A461020B870414600205A
:102FD0007860C6F82490A6F82AA0DFF8A000F06276
:102FE000708D308530467047012139703068016836
:102FF000CA0703D4026842F0010202602346306827
:103000000A9D016821F400610160704720207870FA
:103010000020B8703870704740420F00A186010050
:10302000706A421C7262007808617047706A411CC5
:10303000716231680078086170472246294630463F
:1030400000F000BA22462946304600F0E1B9308D42
:10305000411E3185708D411E7185704706F13C0718
:103060000446787820287047009419230122DFF85D
:103070003811304600F054B9000000000000FFFF96
:103080000646884691469A4600F08ABB3068016839
:1030900041F400710160202078700020B870387011
:1030A0007047716A4A1C7262006908707047022892
:1030B000DFF8F88000942B467047086820F48060A1
:1030C0000860002100917047706A411C716231688C
:1030D0000A6902707047706A411C716231680A693E
:1030E0000270308D411E3185708D411E71853068B2
:1030F00041694A07704700224146304600F010B946
:1031000022462946304600F0C4B920F480600860A9
:103110003068016841F40061016000200090704750
:103120003068016841F400710160706A411C71628D
:1031300031680A690270308D411E3185708D411EE3
:10314000718570473068016821F4806101602B4609
:10315000706A411C716231680A6902700022308D08
:10316000411E3185708D411E718500944146304667
:1031700000F0D6B800902068416900918269009201
:10318000002200997047306841690091826900927D
:103190000099016841F4007101607047016841F4D1
:1031A00080710160704700000200100004000100FF
:1031B000F8B504460D46E06A04281EBF01285749A9
:1031C000884216461F4602D100F02FF803E0206B1C
:1031D000122800F087F80097334600F090F810BBF3
:1031E0002069B0F5804F04D1216805F0FE050D611E
:1031F0000EE0E809216800F0060040F0F0000861E8
:103200003B463246444900F082F838B900F071F884
:103210003B4632463F4900F07AF828B1206C04283A
:1032200001D10120F2BD0320F2BD2068016841F404
:103230008071016070472DE9F84304460D46E06A4D
:10324000216891460A6842F480620A6004281EBF21
:103250000128324988421E4602D1FFF7E6FF03E00B
:10326000206B112800F03EF800964B4600F047F81E
:10327000002834D12069DFF89C80B0F5804F05D15B
:10328000216845F00105EDB20D6120E0EF092168EC
:1032900007F0060747F0F000086133464A461E492A
:1032A00000F035F8002815D100F023F800F02CF8D4
:1032B00080B900904B46FFF75EFFFFF76FFF009667
:1032C00000F01EF858B9206847F0F107076100F0D8
:1032D0001BF828B1206C042808BF012000D003206F
:1032E000BDE8F28304D12068036843F4807303606F
:1032F00070472068EDB20561704700965346002282
:103300004FF0011120460BE033464A464146204625
:1033100037E0000002000100080001000000FFFF8C
:103320002DE9F8430E46089C37020546914698461B
:103330003F0E2868012F19D14069304080B2B1B2E8
:10334000884219D00020484518D118F1010FF0D05B
:10335000B8F1000F04D000F023FA001B8045E8D23A
:1033600000F04EF881700170032008E08069304061
:1033700080B2B1B28842E5D10120E4E70020BDE887
:10338000F2832DE9F0410E46370205461446984671
:103390003F0E2868012F14D14169314089B2B2B281
:1033A000914214D041694A0513D500F022F82968EA
:1033B000486105F13C0004224260002100F092F8CF
:1033C00015E08169314089B2B2B29142EAD1002060
:1033D0000DE014F1010FDCD02CB100F0E1F9A0EB0D
:1033E00008008442D5D200F00BF801700320BDE83C
:1033F000F081026842F4007202606FF480607047EE
:1034000000202863202105F13C0041700021704715
:1034100070B505460C4616462868416908060FD463
:10342000284600F066F808B1012070BD14F1010FC4
:10343000F2D024B100F0B4F9801B8442ECD21BE03E
:10344000002070BD70B505460C46164628684169D7
:1034500048070FD4284600F04CF808B1012070BD91
:1034600014F1010FF2D024B100F09AF9801B8442CC
:10347000ECD201E0002070BD05F13C000022416863
:1034800041F0200141602A63202141700270032035
:1034900070BD70B505460C461646286841694A0657
:1034A0001ED44169CA0611D424B100F079F9801BF9
:1034B0008442F2D205F13C002022416841F0200113
:1034C0004160427000210170032070BD6FF0100157
:1034D000416105F13C000021416000F003F870BD3E
:1034E000002070BD2963202141700021017001205E
:1034F000704701684A6953050DD56FF480634B61CD
:1035000000F13C0104224A6000220263202048703E
:103510000A700120704700207047000080B51F48E6
:103520001F4901601F49416000218160C1604FF463
:1035300080410161002141618161C1610162FFF748
:1035400007FC30B1BDE8044042210FF2640000F0F6
:1035500029BA01BD00681249884200D0704700B501
:1035600087B0C02101911220012102900391032014
:1035700004210490059101A90B4800F015FA0022DE
:103580000A480092016841F400110160006800F4EB
:1035900000100090009807B000BD0000381900200E
:1035A00000540040A0860100000402404038024060
:1035B000443A5C44726F6E655C536F757263655C10
:1035C0005372635C6932632E630000002DE9F84397
:1035D000574F06463868884600F00F00404502D233
:1035E00000F089F87BD13078524D810705D5A96864
:1035F000B06821F0F0010143A9603078C10766D5B9
:103600007068012802D129688A0305E0022818BFE2
:10361000032803D129688A0103D460E02A6891074E
:103620005DD5A968890840EA8100A86041F289391E
:1036300000F0B6F80446706801280BD1A86800F0C5
:103640000C00042843D000F0ABF8001B4845F5D32C
:1036500003203AE002280AD1A86800F00C000828EC
:1036600035D000F09DF8001B4845F5D3F0E703285E
:1036700037D1A86800F00C000C2828D000F090F892
:10368000001B4845F5D3E3E73078410705D5A96825
:10369000F06821F4E0510143A9603078010706D5B4
:1036A000A868316920F4604040EAC100A86000F0D9
:1036B0004BF8AA682049C2F30312895C1F4AC8402C
:1036C0001060002000F05CFA0020BDE8F28338684A
:1036D00000F00F008045D7D200F00DF8D4D00120C3
:1036E000F3E7A86810F00C0FF1D000F059F8001BB8
:1036F0004845F6D3ACE787F80080396801F00F0140
:10370000414570470D48006870470C480C4A0068F6
:1037100013680C49C3F3822206E00848084A00688F
:1037200013680849C3F34232895CC84070470000FF
:10373000003C024000380240FC750008B00C00203C
:1037400008380240247700081249486800F00C004D
:10375000042802D0082802D019E00F4870470868F2
:103760000A6800F03F00530247BF0B4BB3FBF0F277
:103770000A4AB2FBF0F20868C0F3881042430868B6
:10378000C0F30140401C4000B2FBF0F0704703481A
:10379000704700BF0438024000127A000024F40091
:1037A00001480068704700BF401D002080B500F050
:1037B000FBF900F01BF800F011FA00F05BFA00F0E2
:1037C00004FB00F02AFB00F012FC00F020FC00F0EB
:1037D0002CFCFFF7A3FE00F0E7FB00F087FA00F0F7
:1037E000C7FB00F099FD00F057F8FEE700B593B075
:1037F000002000906148016841F080510160002183
:10380000006800F08050009000985D480091012110
:10381000026842F4804202604FF48032006800F493
:10382000804000900098069102200C904FF4800197
:103830000D9104200E90A8210F91022010900421D8
:103840000792119106A800F0C1FD00B1FEE70F211B
:10385000019102200021029003914FF4C0504FF4D7
:1038600080510490059101A80521FFF7AFFE00B13A
:10387000FEE7FFF747FF4FF47A71B0FBF1F000F07D
:1038800052FF042000F063FF002200214FF0FF30C0
:1038900000F022FF13B000BD80B500F075FF01F00D
:1038A000C3F801F0D1F901F0A1FB01F0ABFB01F08D
:1038B000B3FB01F0D9FC9FED300A324801F054FE11
:1038C00001F06AFE00F0D2FCBDE8014000F017BB39
:1038D00000682D49884200D0704738B501F0BCF926
:1038E00001F0ABF801F0CCFC284D294CE87830B160
:1038F00094ED070A234801F03DFE84ED070A2549AF
:10390000887818B100F048FF00F07AFFA878002806
:103910001EBF2149C878002822D000221F4DCA703E
:1039200095ED021AD5ED010A95ED000A01F010FFA0
:1039300095ED081AD5ED070A95ED060A02F038F85C
:1039400002F062F801F05CFE94ED070A01F0AFFEB0
:1039500000F06AFF00F0FAFFBDE8314002F066B8FF
:1039600031BD01B54FF6FF73012269460C4802F0E4
:103970004BF9009802BD00009A99593F4038024027
:1039800000700040B01C002000100040DC19002036
:10399000F8190020CC1C0020381D0020BC17002086
:1039A000A01A0020FEE700002DE9F84F4FF0000EAE
:1039B000684CDFF8A481DFF8A4914FF00F0A0246AB
:1039C0000B4601211D6801FA0EF10D408D4240F0B9
:1039D000B2805E68022E18BF122E4FEA8E0012D1FE
:1039E0004FEADE0602EB860C00F01C06DCF82070C5
:1039F0000AFA06FB27EA0B07D3F810B00BFA06F613
:103A00003E43CCF820604FEA4E0C0326176893F82B
:103A100004B006FA0CF6F6430BF0030B37400BFA32
:103A20000CFB4BEA070717605F68012F18BF022FD6
:103A300003D0112F18BF122F12D19768D3F80CB0F2
:103A400037400BFA0CFB4BEA07079760576827EAE9
:103A500001015F68C7F3001707FA0EF73943516099
:103A6000D1680E40996801FA0CF13143D160596870
:103A7000C90060D50026009600F00C00D9F80010AF
:103A800041F48041C9F80010D9F8006006F480467E
:103A900000960AFA00F600994FEA9E0158F8217044
:103AA000B7432F4EB24208BF002622D02D4EB2425D
:103AB00008BF01261DD02C4EB24208BF022618D0E6
:103AC0002A4EB24208BF032613D0294EB24208BF85
:103AD00004260ED0274EB24208BF052609D0264E36
:103AE000B24208BF062604D0244EB2420CBF0726BD
:103AF000082606FA00F0384348F82100E843216818
:103B00005E680140F60348BF2943216061685E6832
:103B10000140B60348BF29436160A1685E68014067
:103B2000F60248BF2943A160E1680140586880025D
:103B300048BF2943E1600EF1010EBEF10F0F7FF681
:103B400040AFBDE8F18F81B002B90904816101B0D5
:103B500070470000003C01400838014044380240F2
:103B6000000002400004024000080240000C024035
:103B7000001002400014024000180240001C0240E5
:103B800010B508490A6804464FF47A70B2FBF0F0A9
:103B900000F0C9FD002221464FF0FF3000F09CFDEF
:103BA000002010BDB00C002080B50B48016841F426
:103BB00000710160026842F480620260016841F4B1
:103BC00080710160032000F07AFD0020FFF7D8FF2C
:103BD00002F007FB002002BD003C024010B586B099
:103BE00000200090214C2248016841F080010160D2
:103BF000026802F08002009200220099009203689D
:103C000043F001030360016801F001010091009994
:103C10000092036843F002030360016801F00201AF
:103C2000009100990092036843F01003036001685B
:103C300001F010010091009900920121036843F006
:103C400004030360006800F0040000900098204620
:103C5000FFF779FF01200190029001A90020039055
:103C600004902046FFF7A0FE06B010BD00040240FD
:103C70003038024080B5002000901B48016841F4B4
:103C800080010160026802F4800200920022009923
:103C900000920021036843F400130360006800F4FD
:103CA0000010009000980C2000F016FD0C2000F091
:103CB00030FD002200210D2000F00EFD0D2000F04F
:103CC00028FD00220021392000F006FD392000F0F7
:103CD00020FD002200213A2000F0FEFCBDE8024059
:103CE0003A2000F016BD00BF30380240914830B590
:103CF000914C0FF26025206095B028206060002074
:103D0000A0604AF21040E06000202061606100F095
:103D100077F810B1432100F07DF84FF480501090F7
:103D200010A9204602F002FC10B1492100F072F8FF
:103D3000204602F0B4FA10B14E2100F06BF800F00A
:103D400062F810B1552100F065F860200021029062
:103D5000039104910591069107910891002200F0CA
:103D600030F810B1612100F055F8042200F029F874
:103D700010B1662100F04EF8082200F022F810B1D0
:103D80006B2100F047F80C2200F01BF810B17021F5
:103D900000F040F800204FF4005109900A900B9079
:103DA0000C900D900E910F9009A9204602F091FD04
:103DB00010B17C2100F02EF8204600F089F815B0F3
:103DC00030BD02A9204602F03DBB5C4830B55C4CDA
:103DD0000FF28015206083B0292060600020A06071
:103DE00040F2E73000F00BF810B18D2100F012F82E
:103DF00000F009F810B1942100F00CF837BDE06034
:103E0000204602F01FBA002000900190694620462B
:103E100002F03ABD2846FFF7C5BD4A4830B54A4CC6
:103E20000FF23015206083B041F26700606000201F
:103E3000A06042F20F70FFF7E2FF10B1A321FFF77D
:103E4000E9FFFFF7E0FF10B1AA21FFF7E3FF37BD5D
:103E500080B50068374A3D4990420BD10020009060
:103E60004A6842F001024A60486800F00100009090
:103E7000009801BD314A904211D1002000900A689B
:103E800042F010020A600022086800F01000009062
:103E900000210098362000F01FFC362013E0294A4C
:103EA000904214D1002000900A6842F020020A607B
:103EB0000022086800F020000090002100983720C0
:103EC00000F00AFC3720BDE8024000F022BC01BD32
:103ED00000681849884200D0704700B585B04FF49B
:103EE000D44100910220002102910391019001210F
:103EF000049169461648FFF757FD05B000BD10B59F
:103F00000F480D4C02F0ABF90F4802F0A8F9002160
:103F1000204602F0D1F90421204602F0CDF9082113
:103F2000204602F0C9F92046BDE810400C2102F0FD
:103F3000C3B9000000000140601B002000100040D9
:103F40009C1B002000140040D81B00204038024079
:103F500000100240443A5C44726F6E655C536F75AA
:103F60007263655C5372635C74696D2E630000005C
:103F700080B5DFF83003DFF8301300F006F818B131
:103F8000BDE804404A212EE001BD01604FF4E1315B
:103F9000416000218160C16001610C21416100210B
:103FA0008161C16101F0F4BD80B5DFF80003DFF885
:103FB00000130160DFF8FC1241604FF48051816012
:103FC0004FF40051C1604FF4806101610C214161E7
:103FD00000218161C16101F0DBFD18B1BDE8044041
:103FE0005D2100E001BD0FF21430FFF7DBBC80B5AE
:103FF000DFF8C402DFF8C41201604FF46121FFF75B
:10400000C7FF18B1BDE804407021ECE701BD80B5E1
:10401000AB48AC4901604FF46121FFF7B9FF18B11B
:10402000BDE804408321DEE701BD80B5A648A7496D
:10403000FFF7ABFF18B1BDE804409621D3E701BDFF
:104040002DE9F04F044687B02268974BA04DA14E52
:10405000A148A2499A424FF480794FF4806A4FF008
:10406000006830D10022059203220B6843F400233C
:104070000B600223096801F4002105910599019361
:104080000121029108230092039204936946FFF7ED
:104090008BFC05F118003060C6F804800020B06089
:1040A000F060C6F810A07061B061C6F81C90306274
:1040B0007062304602F03AFC10B1C02100F0C5F841
:1040C0006663B463B8E07A4BDFF814B29A4206F143
:1040D00084072ED1002205924FF4C0624B6843F052
:1040E00010034B600223496801F0100100F0B1F8A1
:1040F0000BF118003066C6F864800020B066F066E8
:10410000C6F870A07067B067C6F87C904FF4803036
:10411000C6F880000020386006F1600002F006FC5E
:1041200010B1EA2100F091F806F1600060637C6153
:1041300082E0624B9A420DD1002205920C220B685C
:1041400043F400330B600223096801F4003100F0EE
:1041500080F871E05B48824231D1002005900A6806
:1041600042F480220A600222086800F48020059050
:104170004FF4406100F063F807200391049001922E
:1041800069465848FFF710FCFD63C7F840800020DF
:104190007864B864C7F84CA038657865C7F858905B
:1041A000F865386606F1C005284602F0BFFB18B175
:1041B00040F22B1100F049F865637C673CE043480E
:1041C000824239D10020059006F590754A6842F088
:1041D00020024A600222486800F020000590C021B9
:1041E00000F02DF8082003910490019269463E48A2
:1041F000FFF7DAFB4FF020606860C5F800B00020E0
:10420000A860E8606861A86128626862C5F810A0CB
:10421000C5F81C90284602F089FB18B140F25511F0
:1042200000F013F86563AC6300220021472000F022
:1042300053FA472000F06DFA07B0BDE8F08F0598FB
:10424000009101200290032170470FF2B000FFF7A8
:10425000A9BB059105990092012102910322072132
:104260000491019303926946FFF79EBB80B54FF41A
:1042700080621E490D4801F020FD4FF480621C4908
:104280000F4801F01AFD4FF480621A49054801F009
:1042900014FDBDE808404FF4806217490A4801F058
:1042A0000CBD0000201A0020004C0040601A0020C5
:1042B00000100140A0860100A01A00200044004028
:1042C000E01A002000480040201B0020001401409C
:1042D00028600240F01500200000024040380240F3
:1042E000286402400004024000080240A0080020A8
:1042F00090040020180D00207C000020443A5C440B
:10430000726F6E655C536F757263655C5372635C4C
:1043100075736172742E630080B521482149016074
:104320004FF48271416000218160C160016141618F
:104330004FF4007181610021C161016241628162BB
:104340000A21C16202F0B6FC30B1BDE8044045214B
:104350000FF25C00FFF726BB01BD006811498842DF
:1043600000D0704700B587B000210F480091382178
:10437000026842F4805202600222006800F4805019
:1043800000900098019100200390032105200491E2
:104390000590029201A90548FFF706FB07B000BD92
:1043A000E018002000300140443802400004024080
:1043B000443A5C44726F6E655C536F757263655C02
:1043C0005372635C7370692E630000002DE9F04145
:1043D000054682B02878AE4CC10741D5A06800F0F0
:1043E0000C00042807D0A06800F00C0008280BD1AE
:1043F0006068410208D52168880331D568680028C3
:1044000040F0B580012040E16868B0F5803F06D0FB
:10441000B0F5A02F216807D141F4802121602068E8
:1044200040F48030206006E021F480312160226871
:1044300022F480222260686868B1FFF7B1F906466D
:104440002168880300F19380FFF7AAF9801B652893
:10445000F6D3032019E1FFF7A3F90646206881038C
:1044600040F18580FFF79CF9801B6528F6D3F0E7C3
:10447000FFF796F9C01B022840F2A680E9E7E8683A
:1044800070B101213160FFF78BF907462068810781
:1044900000F1C180FFF784F9C01B0228F6D9D8E7E4
:1044A0003060FFF77DF907462068810762D5FFF786
:1044B00077F9C01B0228F7D9CBE70860FFF770F93E
:1044C0000746606F810774D5FFF76AF9C01B0228A1
:1044D000F7D9BEE70528206F06D140F00400206719
:1044E000206F40F0010005E0400840002067206F89
:1044F00020F00400206741F28937A86868B1FFF70F
:104500004FF98046206F810700F19280FFF748F94C
:10451000A0EB0800B842F5D39BE7FFF741F98046CE
:10452000206F810756D5FFF73BF9A0EB0800B84292
:10453000F6D38EE7FFF734F9C01B022840F28780DC
:1045400087E7FFF72DF9401B022840F2998080E7AA
:1045500000203066FFF724F905462068810140F10C
:104560009380FFF71DF9401B0228F6D971E72878E0
:10457000484E81071BD5A06810F00C0F09D0A06829
:1045800000F00C0008287FF47AAF606841023FF524
:1045900076AF2168880703D5E86801287FF432AF39
:1045A0002168286921F0F80141EAC00121602978D9
:1045B00008070DD56869384900283FF47EAF01220D
:1045C0000A60FFF7EDF80746606F81077FF550AF8F
:1045D000297848072CD500200090216CDFF8BC809A
:1045E00041F080512164206C00F0805000900098D0
:1045F000D8F8001041F48071C8F80010FFF7D0F827
:104600000746D8F80000C1050DD4FFF7C9F8C01B54
:104610000228F6D91DE72068296920F0F80040EA51
:10462000C1002060C3E7A86801287FF453AF57E7B3
:10463000A86948B3A16801F00C0108293FF4E2AE73
:10464000022885D100203066FFF7AAF807462068C7
:1046500081013FF56FAFE969286AAA6A0143686A78
:10466000921ED20341EA8011120CE86A41EA02412B
:1046700041EA0061616001213166FFF791F805466A
:10468000206881017FF55DAF0020BDE8F68100BFA5
:104690000038024000004742800E47420070004050
:1046A0000901002881B006D52F4A00F00F00104400
:1046B00000F8041C01E02D4A115401B070472C4A47
:1046C00013684FF6FF0100020B4000F4E06018434E
:1046D000284908431060704738B5254B1C68C4F35F
:1046E0000223C3F10704052C28BF04241D1D072D38
:1046F00034BF0023DB1E012505FA04F4641E2140AB
:10470000994005FA03F35B1E1A401143BDE834409B
:10471000C6E7012200F01F01174BFFE78A4040095E
:1047200043F82020704710B5401EB0F1807F01D3C0
:10473000012010BD114C60600F214FF0FF30FFF7DA
:10474000AFFF0022A26007202060002010BD0428D7
:104750000A4904D1086840F00400086070470A68FC
:1047600022F004020A60704718ED00E000E400E067
:104770000CED00E00000FA0500E100E010E000E0D0
:1047800000F000B8704700009A489B4901619B49BE
:10479000416100218161704799499A480A88A2F5D0
:1047A000806200EE902AF8EEE00A9FED8F1AB3EED9
:1047B0000E0A80EE811A61EE000AC0ED030A9FED39
:1047C0008A1A4A88A2F5806200EE902AF8EEE00A82
:1047D00080EE811A21EE000A80ED040ADFED820AE4
:1047E000C988A1F5806100EE101AB8EEC00AC0EECB
:1047F000200A9FED7E1A20EE811A80ED051A70477F
:104800007F4881887F48A1F5806100EE101AB8EEDC
:10481000C00ADFED750AC0EE200AB0EE081A20EEDD
:10482000811A80ED061A704775487749828891F899
:10483000780040B1C8690866886A4866486B88662F
:10484000002081F8780040F26910824203DA0020EB
:10485000C861886204E0086EC861486E8862886E2C
:10486000D1ED102A91ED083A48639FED612A654821
:1048700090ED030A81ED000AD0ED040AC1ED010AB2
:1048800090ED051A614881ED021AD0ED001A30EE64
:10489000610AD1ED061A61EE801A40EE022A81ED1E
:1048A000030AC1ED0F1AC1ED102A90ED030A20EEA4
:1048B000430A91ED073A81ED110A43EE221A31EED7
:1048C000800A81ED1B0A90ED010AD1ED131AD1ED9A
:1048D0000B2A30EEC00AD1ED090A60EE800A40EEE4
:1048E000021A81ED040AC1ED120AC1ED131A90ED0E
:1048F000040A20EE620AD1ED0A2A81ED140A42EE82
:10490000A10A30EE800A81ED1C0A90ED050AD1ED76
:10491000161A71EE400AC1ED050A40EE821A91EDB9
:104920000C1AC1ED161A21EE201AD1ED0E0A81EDF6
:10493000151A20EE600AD1ED0D0A81ED170A00EE7E
:10494000A11A31EE000A81ED1D0A70474FF07C502C
:10495000F6EE000A10B5274CDFED251A2DED028B7F
:10496000206084B02A4894ED062A90ED020A84ED76
:10497000010A30EEC00A84ED020AD4ED040A94ED77
:10498000021A606820EE800A84ED070AD4ED080A56
:1049900041EE210A94ED011AC4ED080AC1EE211A74
:1049A00021EEC21AD4ED051A84ED091A01EEA00A0F
:1049B00030EE018A84ED038A02F0BEF9CDE90201EE
:1049C000206802F0B9F9CDE9000118EE100A02F0F2
:1049D000B3F902460B460FF23C0002F0D1F904B0E5
:1049E000BDEC028B10BD00000000284400001643FF
:1049F0000AD7233C441C00200000F0410000A040E6
:104A00006C1C0020CC1C002000000020BC170020E3
:104A100008180020252E32662020252E34662020FE
:104A2000252E34660A0D0000824801210170002104
:104A30004170817041600181704710B57D4C00204C
:104A4000A07000F006F8607810B1BDE810406FE08B
:104A500010BD2DE9F84F7848DFF8E0B101684C68E7
:104A60000BF580663068844244DAD6F80490714FC2
:104A7000F568D6F808A0DFF8C881001B19FA80F0A5
:104A8000411200EB91518912A0EB812079780090BE
:104A90000098814544D0387880B11BF809000F2870
:104AA00018BF8F280AD100203870CA460AF11805AD
:104AB000681205EB90508012A5EB8025A94510D116
:104AC0001BF8090042070CD5AA4518DAA5EB0A0223
:104AD000521C0BEB0A014046FCF710FC0120387019
:104AE000012109F10102501202EB90508012A2EB59
:104AF0008029CDE7A04219DA00F58060B5E7554579
:104B0000ECDACAF580620BEB0A014046FCF7F6FBD3
:104B100008F58060CAF100036A1C59461844DBE7B7
:104B20007970F560C6F808A034607060BDE8F18F58
:104B3000F0B54048434A0021417041498B784C7898
:104B40001D0205F4E0652C191480CC78650105F48C
:104B5000FC6505EBD30353800B794D799B0003EB88
:104B60009413AC0204F48064E31893808C79E6011A
:104B700006F4F06606EB5505D580CD792E0106F4D6
:104B8000FE6606EB141414810E7A4C7A76006702E6
:104B900006EBD51507F4C0677D1955818D7AAE01F6
:104BA00006F4F86606EB94049481CC7AE40004EBF6
:104BB0005515D5814C7B0D7B260206F4E0667519F0
:104BC00015828D7B6E0106F4FC6606EBD4045482DC
:104BD000CE7B0C7CB600A70206EB951507F4806728
:104BE0007D1995824D7CEE0106F4F06606EB5404C7
:104BF000D4828C7C260106F4FE6606EB151515831F
:104C0000CE7C0D7D76006F0206EBD41407F4C067EE
:104C10003C1954834C7DA60106F4F86606EB950515
:104C20009583897DC90001EB5414D4830121C3808D
:104C30008170F0BDCC1C002050160020A008002080
:104C4000E81C00206C1C0020E148012101700021BB
:104C5000417041808180704710B500F00BF8DC4C4A
:104C6000607830B100F077F8A07810B1BDE810405E
:104C700084E010BD2DE9F04FD648DFF85C93016861
:104C800083B04A68009209F5806529688A42A8BF06
:104C900091425EDA6F68DFF83883DFF840B3891A33
:104CA00057FA81F0411200EB915189127F1EA0EB5F
:104CB00081207C1C08BF40F2FF37019012E0B24512
:104CC0000DDAC6F580625846FCF718FB0BF58060DC
:104CD00076420AF1010249463044FCF70FFB0120FD
:104CE00088F801000198844230D019F80700FA28AA
:104CF00004BF19F80410FF290CD1002088F8000027
:104D0000AF6007F16200411200EB91518912A0EBF4
:104D10008120E8607F1C781207EB90508012A7EB8F
:104D200080277C1C6012D5F80CA004EB90508012F8
:104D30005745A4EB8024D5D1AE68564509EB060152
:104D4000BDDAAAEB0606721C5846C6E70099296030
:104D50006860BDE8F78F30B59D49A04C0022002067
:104D60004A700123E55C5B1C4019632B80B2F9DBC0
:104D7000C0B200B901228A7030BD000038B5974832
:104D8000974C2DED028B817A2170417A6170017A06
:104D9000A170C179E170817B2171417B6171017BDF
:104DA000A171C17AE171817C2172417C6172017CC7
:104DB000A172C17BE172417E2173017E6173C17D6D
:104DC000A173817DE173417F2174017F6174C17E94
:104DD000A174817EE17400F121010A78227590F8B6
:104DE00020206275C27FA275827FE2754330CA7946
:104DF00022768A7962764A79A2760A79E276CA7A46
:104E000022778A7A62774A7AA2770A7AE277CA7B2D
:104E100084F8202004F121028B7B13704B7B5370AC
:104E20000B7B93708B7DD3704A7D84F825200A7D9F
:104E300084F82620CA7C84F827208A7E84F82820DB
:104E40004A7E84F829200A7E84F82A20CA7D84F8C4
:104E50002B208A7F84F82C204A7F84F82D200A7F1B
:104E600084F82E20C97E84F82F10C17884F8301081
:104E7000817884F83110417884F83210017884F810
:104E80003310C17984F83410817984F83510417970
:104E900084F83610017984F83710C17A84F8381014
:104EA000817A84F83910417A84F83A10017A84F8CA
:104EB0003B10C17B94ED010A94ED098A84F83C1003
:104EC00004F14405817B84F83D10B1EE400A417B3A
:104ED00084F83E10017B84F83F10817D84F84010F7
:104EE000417D84F84110017D84F84210C17C84F832
:104EF0004310817E2970417E6970017EA970C17D59
:104F0000E970817F2971417F6971017FA971C07E3C
:104F1000E87185ED030A206894ED020AA860B1EEFD
:104F2000400AE068286285ED040AA06994ED040A4D
:104F3000E862B1EE400AE06985ED090A286394ED64
:104F4000050A206A6863B1EE400A85ED0A0A9FED02
:104F50001E0A28EE000A00F02FF800F031F801F0E8
:104F600023FF68619FED198A94ED0A0A00F022F888
:104F700000F026F801F018FFA86194ED0B0A00F08C
:104F800019F800F01DF801F00FFFE8611049206BDF
:104F9000A863606BE863A06B2864E06B6864206CB6
:104FA000A8642868E864686828650120C870BDECBA
:104FB000028B31BD20EE080A10EE100A01F0BCBED3
:104FC000084A094BFCF702BD00003443000034C31B
:104FD000381D0020B0160020900400207C1800200E
:104FE000701700201E264454FB210940DFF81000F2
:104FF00001210170002141708180C1600161704711
:105000001C1D0020034801210174002141744182CC
:1050100081827047041D00202DE9F04100F0B9F8AD
:105020007148724E0468DFF8C881724D01F030FF9C
:10503000012C62D00FF2D01001F0A2FE00F0ABF80C
:105040000221032001F0CCFF0121674800F0AAF8FB
:105050000020E861A862B1EE080A4FF080402863A2
:10506000F7EE080A0020686385ED060A4FF08140DC
:10507000A863C5ED080A85ED090AC5ED0B0A0024F1
:105080005D48C8F810005D48C8F814005C48C8F8CE
:105090001800002754B905F1180050F827003066B1
:1050A000014606F1300050F827001BE0012C06EB0A
:1050B000870006D105F1240151F827103166C06B35
:1050C00010E0022C06D105F1300151F827103166AD
:1050D000806C07E0032C07D108F1100151F827106C
:1050E0003166406D00F05EF87F1C032FD2DB641C3C
:1050F000032CCEDD01F0CCFE20E00FF22C1001F0ED
:105100003FFE00F05EF83068A8617068E861B06842
:105110002862F06868623069A8627069E862B06904
:105120002863F0696863306AA863706AC8F8100081
:10513000B06AC8F81400F06AC8F8180000240FF22A
:10514000FC000FF20C1601F01BFE002714B905F14C
:1051500018000DE0012C08BF05F1240008D0022C36
:1051600008BF05F1300003D0032C0AD108F110006C
:1051700050F8270001F0E0FD02460B46304601F0F2
:10518000FFFD7F1C032FE1DB641C032CDDDDBDE88C
:10519000F08180B500E080B501F071FE1949F3207F
:1051A000086001BD80B50A4601460023022001F0D7
:1051B0002FFE28B1BDE802400FF29C0001F0E0BDD7
:1051C00001BD80B5FFF7E5FF0020084901EB800233
:1051D000136B1A680A6641F82020401C0C28F5DB86
:1051E000BDE8014001F054BE30C00008B40C0020FE
:1051F000441C0020000000200000F041000070412D
:10520000CDCCCC3E0C3C0240466C6173682068619A
:1052100073206E6F74206265656E206576657220FE
:10522000757365640A0D0000466C617368207761D0
:105230007320757365640A0D00000000696E69745F
:1052400069616C206761696E20646174610A0D0098
:10525000252E34660A0D0000577269746520457268
:10526000726F72210A0D000080B5B74800210160FD
:1052700081808171416200F04DF8BDE8014058E045
:1052800010B5B14C0020E070207810B12179491C94
:10529000217121790A2935DB607900F082F800213B
:1052A00060792170217158B300F0A0F800F01CF96A
:1052B000A07894ED090AD4ED0B0A90B9A079401CAE
:1052C000A07130EE200AC0B26528B8BF84ED090A8B
:1052D0000FDB9FEDA21A012080EE010AA07084ED81
:1052E000090A012094ED090AE07030EEC00A84ED4D
:1052F0000E0A012060706079401E8041C00F00E0FE
:1053000001206071207820B9607900F037F8012021
:10531000207010BD80B58C481E21017200F108027A
:105320006421009100F038F8BDE80240032001F04C
:105330007FBEF8B50127824C824D834E780040F045
:10534000A000307201236420009006F10802EC21D5
:105350002846FDF769FD6420009002232246ED21D6
:105360002846FDF7B6FD2078617841EA002106EB7A
:1053700047007F1C072F8181E0DBF1BD80B500284D
:1053800071490CBF48205820087201F108026420BE
:10539000009000F001F801BD0123EC216948FDF700
:1053A00043BDF8B50446684D664E654F002028722F
:1053B00001236420009005F10802EC213046FDF73E
:1053C00033FD6420009003233A46ED213046FDF77B
:1053D00080FD79783878090241EA0041B8780143C4
:1053E0000CB92964F1BDE963F1BD00002DE9F84F66
:1053F000554D2DED028BEC6BEA8A2E8BB5F80EA085
:10540000A4EB02244FEAE479A6FB040106FB091190
:105410004FF400020023FBF7C5FFAA8A2E8A00F58D
:10542000FA6800F05AF88022FBF7BCFF6A8A00276E
:1054300010EB06464F4100F050F84FF48072FBF736
:10544000B1FF4FF0000B10EBCA324BEB0103B8F584
:10545000FA6F1BDAA8F5FA60404300EB8000824641
:1054600000EBD0706443A11704EB5104E4176442CD
:10547000B6EB600677EBE0774FEA6A000AEB9070D4
:10548000B2EBA002A8EB040873EBE07300EE108A05
:105490009FED338AB8EEC00A20EE080A85ED070AB0
:1054A0002C6CA2FB040103FB04114FF40012002337
:1054B000FBF778FF801BB9414FF400420023FBF754
:1054C00071FF01F0C5FD00EE100A20EE080A85ED1F
:1054D000080ABDEC028BBDE8F18FA4FB020109FBB9
:1054E000021100237047000010B5174C9FED170AFA
:1054F0002DED048B94ED089A9FED151B89EE000AA3
:10550000B0EE418AF0EE618A10EE100A01F014FC50
:1055100041EC100BB0EE481AF0EE681A01F0C7FD2E
:1055200053EC102B00200C49FCF7DEF900220D4B48
:10553000FBF7D2FF01F038FCE062BDEC048B10BD3C
:10554000F011002038190020DC1900209AF97F445E
:1055500000000060955BC83F0000F03F0000CA42B9
:105560000AD7233C40A5E54000214160816080EDE1
:10557000060A7047F0EE400A90ED061A90ED020A16
:1055800020EE010AF7EE001A31EEC11A01EE200AF0
:1055900080ED020A70470000684800218160C16008
:1055A00041618161C1640165B0EE000A64498165B1
:1055B00080ED040A00218162016680ED070AB7EEE2
:1055C000000A60490163DFED5C0A002180ED120AE8
:1055D00080ED150A80ED080AC0ED090A80ED0B0A7E
:1055E00080ED170AC0ED190A80ED1A0AC0ED0D0A08
:1055F00080ED0E0AC163C16680ED1C0A7047000091
:1056000070B54E4E2DED028B86ED000ADFED4A8A15
:1056100096ED038A96ED020A08EE280A10EE100AAB
:1056200001F08AFB044630680D4601F085FB464ACE
:10563000464BFBF751FF22462B46FCF711FB01F0CE
:10564000B3FB96ED051AD6ED061AD6ED042A96EDB3
:10565000000AB06031EE812A00EE288A96ED070A32
:1056600086ED038A60EE280A32EE202A42EE282ACE
:1056700096ED122A32EE822A86ED042A31EE201AA5
:1056800096ED132A31EE021A86ED051A71EEA00A84
:1056900096ED141A70EE810AC6ED060AD6ED150ACB
:1056A00030EE200A86ED070ABDEC028B70BD234860
:1056B00090ED022AD0ED160AD0ED161A90ED061ADA
:1056C00080ED010AD0ED012A90ED040A72EEC22AA3
:1056D00070EE200A70EE211AC0EE200A02EEA02A17
:1056E00080ED022AC1EE211AD0ED012AC0ED100A88
:1056F00032EEC22AD0ED032AC0ED111A42EE212A61
:10570000C0ED032AB0EE402A00EEC02A90ED050A53
:1057100080ED042AF0EE402A40EEC02A90ED070A00
:1057200001EEC21A01EEE20AC0ED052A80ED061A6A
:1057300080ED070A704700000AD7233C08180020B4
:105740000000404017B75138001973D7E2360A3FBE
:1057500010B52DED0A8BB0EE608AF0EE418A10EEA6
:10576000100A01F0E9FA9FEDACBB00F01DF9002230
:10577000AC4BAB4CFCF72AF901F016FB0AEE100A11
:1057800018EE100A01F0D8FA00F00EF900F0F6F861
:1057900001F00AFB09EE100A18EE900A01F0CCFAAB
:1057A00000F002F900F0EAF801F0FEFA01F0C4FAA4
:1057B00041EC180B00F0F0F800F0AFF819EE100A09
:1057C00001F0BAFA41EC190B00F0C0F800F0EAF869
:1057D00001F0EAFA206000F0D7F800F09EF81AEE27
:1057E000100A01F0A9FA41EC1A0B00F0BBF800F026
:1057F000D9F800F0CFF800F09FF800F0B9F841ECCC
:105800001C0B00F093F800F0B3F853EC1B2BFCF7E3
:105810006BF801F0C9FA606000F0B6F800F082F8A9
:1058200000F0C0F800F0B6F800F086F800F0A0F83C
:1058300041EC1C0B00F096F800F09AF853EC1B2B8F
:10584000FCF70EFA01F0B0FAA06000F09DF800F04D
:1058500064F800F07BF800F0A5F801F0A5FAE0602C
:1058600000F09AF800F059F800F07CF800F09AF88F
:1058700000F088F800F060F800F07AF841EC1C0BBA
:1058800000F054F800F074F853EC1B2BFCF7E8F927
:1058900001F08AFA206100F07FF800F043F800F090
:1058A00081F800F06FF800F033F800F049F800F0EC
:1058B00053F841EC180B00F055F800F04DF853EC9C
:1058C0001B2BFCF711F801F06FFA606100F038F85B
:1058D00051EC100B81F0004101F066FAA06100F07C
:1058E00035F800F015F800F021F800F035F801F077
:1058F0005BFAE06100F02AF800F00AF800F032F8F4
:1059000000F02AF801F050FA2062BDEC0A8B10BDBD
:10591000B0EE408AF0EE608A7047B0EE40BAF0EE2A
:1059200060BA7047B0EE40BAF0EE60BAB0EE4A0A24
:10593000F0EE6A0A01F0C9BBB0EE40CAF0EE60CAF0
:10594000B0EE490AF0EE690A01F0BFBBB0EE490AB9
:10595000F0EE690A01F0B3BB51EC100B53EC182BBD
:10596000FBF7BABDB0EE4A0AF0EE6A0A01F0A7BB37
:1059700051EC100B53EC1C2BFBF7AEBD0022294B56
:10598000FCF724B841EC1B0BB0EE480AF0EE680AB5
:1059900001F09BBB41EC1B0BB0EE480AF0EE680A2D
:1059A00001F08DBB51EC100B53EC1B2BFBF794BD9E
:1059B0001B48D0ED001A90ED012A61EE801A42EEEC
:1059C000201A90ED022A42EE011AC0ED091AD0ED1C
:1059D000031A90ED042A61EE801A42EE201A90ED2F
:1059E000052A42EE011AC0ED0A1AD0ED061A21EE80
:1059F000800AD0ED071A01EEA00AD0ED080A00EEE9
:105A0000810A80ED0B0A70470548D0ED0B0A9FED27
:105A1000060A30EE600A70471E264454FB210940F6
:105A2000141C0020008066400AE81CC15348C2884C
:105A3000534840F269139A424FF4B07106DA0022DB
:105A400020F81210521C042AFADB30E04D4BD3ED43
:105A50001B0A93ED1C1A93ED1D0A71EE601A71EE8C
:105A6000801AFDEEE11A11EE903AD31870EE811A09
:105A7000038071EEC01AFDEEE11A11EE903AD318D0
:105A800070EEC11A438071EE801AFDEEE11A11EE3C
:105A9000903AF1EE600AD31870EEC10A838030EEBE
:105AA000C00ABDEEC00A10EE103AD218C280002221
:105AB00030F91230B3F5D46F04DB4FF4D46320F81F
:105AC000123004E0B3F5B07FD8BF20F81210521C9A
:105AD000042AEDDB2C4AD389B3F5B07F05D0002230
